{
  "_format": "hh-sol-artifact-1",
  "contractName": "Factory",
  "sourceName": "contracts/Factory.sol",
  "abi": [
    {
      "inputs": [
        {
          "internalType": "address",
          "name": "implementationAddress",
          "type": "address"
        }
      ],
      "stateMutability": "nonpayable",
      "type": "constructor"
    },
    {
      "anonymous": false,
      "inputs": [
        {
          "indexed": false,
          "internalType": "address",
          "name": "lotteryAddress",
          "type": "address"
        },
        {
          "indexed": false,
          "internalType": "string",
          "name": "name",
          "type": "string"
        },
        {
          "indexed": false,
          "internalType": "string",
          "name": "symbol",
          "type": "string"
        },
        {
          "indexed": false,
          "internalType": "uint256",
          "name": "startBlock",
          "type": "uint256"
        },
        {
          "indexed": false,
          "internalType": "uint256",
          "name": "endBlock",
          "type": "uint256"
        },
        {
          "indexed": false,
          "internalType": "uint256",
          "name": "ticketPrice",
          "type": "uint256"
        }
      ],
      "name": "NewLottaryCreated",
      "type": "event"
    },
    {
      "anonymous": false,
      "inputs": [
        {
          "indexed": true,
          "internalType": "address",
          "name": "previousOwner",
          "type": "address"
        },
        {
          "indexed": true,
          "internalType": "address",
          "name": "newOwner",
          "type": "address"
        }
      ],
      "name": "OwnershipTransferred",
      "type": "event"
    },
    {
      "inputs": [
        {
          "internalType": "string",
          "name": "name",
          "type": "string"
        },
        {
          "internalType": "string",
          "name": "symbol",
          "type": "string"
        },
        {
          "internalType": "uint256",
          "name": "startBlock",
          "type": "uint256"
        },
        {
          "internalType": "uint256",
          "name": "endBlock",
          "type": "uint256"
        },
        {
          "internalType": "uint256",
          "name": "ticketPrice",
          "type": "uint256"
        },
        {
          "internalType": "string",
          "name": "ticketURI",
          "type": "string"
        }
      ],
      "name": "createLottery",
      "outputs": [
        {
          "internalType": "address",
          "name": "",
          "type": "address"
        }
      ],
      "stateMutability": "nonpayable",
      "type": "function"
    },
    {
      "inputs": [],
      "name": "owner",
      "outputs": [
        {
          "internalType": "address",
          "name": "",
          "type": "address"
        }
      ],
      "stateMutability": "view",
      "type": "function"
    },
    {
      "inputs": [],
      "name": "renounceOwnership",
      "outputs": [],
      "stateMutability": "nonpayable",
      "type": "function"
    },
    {
      "inputs": [],
      "name": "s_implementationAddress",
      "outputs": [
        {
          "internalType": "address",
          "name": "",
          "type": "address"
        }
      ],
      "stateMutability": "view",
      "type": "function"
    },
    {
      "inputs": [
        {
          "internalType": "address",
          "name": "newOwner",
          "type": "address"
        }
      ],
      "name": "transferOwnership",
      "outputs": [],
      "stateMutability": "nonpayable",
      "type": "function"
    }
  ],
  "bytecode": "0x60a060405234801561001057600080fd5b5060405161089238038061089283398101604081905261002f91610099565b61003833610049565b6001600160a01b03166080526100c9565b600080546001600160a01b038381166001600160a01b0319831681178455604051919092169283917f8be0079c531659141344cd1fd0a4f28419497f9722a3daafe3b4186f6b6457e09190a35050565b6000602082840312156100ab57600080fd5b81516001600160a01b03811681146100c257600080fd5b9392505050565b6080516107a86100ea6000396000818160a0015261015701526107a86000f3fe608060405234801561001057600080fd5b50600436106100675760003560e01c8063715018a611610050578063715018a6146100c25780638da5cb5b146100cc578063f2fde38b146100dd57600080fd5b80633948ec111461006c578063657793011461009b575b600080fd5b61007f61007a366004610535565b6100f0565b6040516001600160a01b03909116815260200160405180910390f35b61007f7f000000000000000000000000000000000000000000000000000000000000000081565b6100ca61027f565b005b6000546001600160a01b031661007f565b6100ca6100eb3660046105ee565b6102e5565b600080546001600160a01b031633146101505760405162461bcd60e51b815260206004820181905260248201527f4f776e61626c653a2063616c6c6572206973206e6f7420746865206f776e657260448201526064015b60405180910390fd5b60006101b47f0000000000000000000000000000000000000000000000000000000000000000338d8d8d8d8d8d8d8d8d6040516020016101999a9998979695949392919061061e565b604051602081830303815290604052805190602001206103c7565b90506000819050806001600160a01b031663a5bf7691338e8e8e8e8e8e8e8e8e6040518b63ffffffff1660e01b81526004016101f99a999897969594939291906106ad565b600060405180830381600087803b15801561021357600080fd5b505af1158015610227573d6000803e3d6000fd5b505050507f74348515c094ca99c7cd832ebc8712d6707195710b22e6c3132b055ae0b5cd8b828d8d8d8d8d8d8d60405161026898979695949392919061071b565b60405180910390a1509a9950505050505050505050565b6000546001600160a01b031633146102d95760405162461bcd60e51b815260206004820181905260248201527f4f776e61626c653a2063616c6c6572206973206e6f7420746865206f776e65726044820152606401610147565b6102e36000610484565b565b6000546001600160a01b0316331461033f5760405162461bcd60e51b815260206004820181905260248201527f4f776e61626c653a2063616c6c6572206973206e6f7420746865206f776e65726044820152606401610147565b6001600160a01b0381166103bb5760405162461bcd60e51b815260206004820152602660248201527f4f776e61626c653a206e6577206f776e657220697320746865207a65726f206160448201527f64647265737300000000000000000000000000000000000000000000000000006064820152608401610147565b6103c481610484565b50565b60006040517f3d602d80600a3d3981f3363d3d373d3d3d363d7300000000000000000000000081528360601b60148201527f5af43d82803e903d91602b57fd5bf300000000000000000000000000000000006028820152826037826000f59150506001600160a01b03811661047e5760405162461bcd60e51b815260206004820152601760248201527f455243313136373a2063726561746532206661696c65640000000000000000006044820152606401610147565b92915050565b600080546001600160a01b038381167fffffffffffffffffffffffff0000000000000000000000000000000000000000831681178455604051919092169283917f8be0079c531659141344cd1fd0a4f28419497f9722a3daafe3b4186f6b6457e09190a35050565b60008083601f8401126104fe57600080fd5b50813567ffffffffffffffff81111561051657600080fd5b60208301915083602082850101111561052e57600080fd5b9250929050565b600080600080600080600080600060c08a8c03121561055357600080fd5b893567ffffffffffffffff8082111561056b57600080fd5b6105778d838e016104ec565b909b50995060208c013591508082111561059057600080fd5b61059c8d838e016104ec565b909950975060408c0135965060608c0135955060808c0135945060a08c01359150808211156105ca57600080fd5b506105d78c828d016104ec565b915080935050809150509295985092959850929598565b60006020828403121561060057600080fd5b81356001600160a01b038116811461061757600080fd5b9392505050565b6bffffffffffffffffffffffff198b60601b168152888a601483013760008982016014810160008152898b8237508801601481018890526034810187905260548101869052838560748301376000930160740192835250909a9950505050505050505050565b81835281816020850137506000828201602090810191909152601f909101601f19169091010190565b6001600160a01b038b16815260e0602082015260006106d060e083018b8d610684565b82810360408401526106e3818a8c610684565b90508760608401528660808401528560a084015282810360c084015261070a818587610684565b9d9c50505050505050505050505050565b6001600160a01b038916815260c06020820152600061073e60c08301898b610684565b828103604084015261075181888a610684565b60608401969096525050608081019290925260a0909101529594505050505056fea2646970667358221220e48063af27f7d39ffd4cdbaaad3fc6e5529585d3bb8f7d64f328cec1710197b264736f6c63430008090033",
  "linkReferences": {},
  "deployedLinkReferences": {}
}