{
  "_format": "hh-sol-artifact-1",
  "contractName": "LottaryFactory",
  "sourceName": "contracts/Factory.sol",
  "abi": [
    {
      "inputs": [
        {
          "internalType": "address",
          "name": "_implementationAddress",
          "type": "address"
        }
      ],
      "stateMutability": "nonpayable",
      "type": "constructor"
    },
    {
      "anonymous": false,
      "inputs": [
        {
          "indexed": false,
          "internalType": "address",
          "name": "lottaryAddress",
          "type": "address"
        },
        {
          "indexed": false,
          "internalType": "string",
          "name": "name",
          "type": "string"
        },
        {
          "indexed": false,
          "internalType": "string",
          "name": "symbol",
          "type": "string"
        },
        {
          "indexed": false,
          "internalType": "uint256",
          "name": "startBlock",
          "type": "uint256"
        },
        {
          "indexed": false,
          "internalType": "uint256",
          "name": "endBlock",
          "type": "uint256"
        },
        {
          "indexed": false,
          "internalType": "uint256",
          "name": "ticketPrice",
          "type": "uint256"
        }
      ],
      "name": "NewLottaryCreated",
      "type": "event"
    },
    {
      "inputs": [
        {
          "internalType": "string",
          "name": "name",
          "type": "string"
        },
        {
          "internalType": "string",
          "name": "symbol",
          "type": "string"
        },
        {
          "internalType": "uint256",
          "name": "startBlock",
          "type": "uint256"
        },
        {
          "internalType": "uint256",
          "name": "endBlock",
          "type": "uint256"
        },
        {
          "internalType": "uint256",
          "name": "ticketPrice",
          "type": "uint256"
        }
      ],
      "name": "createLottary",
      "outputs": [
        {
          "internalType": "address",
          "name": "",
          "type": "address"
        }
      ],
      "stateMutability": "nonpayable",
      "type": "function"
    },
    {
      "inputs": [],
      "name": "implementationAddress",
      "outputs": [
        {
          "internalType": "address",
          "name": "",
          "type": "address"
        }
      ],
      "stateMutability": "view",
      "type": "function"
    }
  ],
  "bytecode": "0x608060405234801561001057600080fd5b5060405161081d38038061081d833981810160405281019061003291906100db565b806000806101000a81548173ffffffffffffffffffffffffffffffffffffffff021916908373ffffffffffffffffffffffffffffffffffffffff16021790555050610108565b600080fd5b600073ffffffffffffffffffffffffffffffffffffffff82169050919050565b60006100a88261007d565b9050919050565b6100b88161009d565b81146100c357600080fd5b50565b6000815190506100d5816100af565b92915050565b6000602082840312156100f1576100f0610078565b5b60006100ff848285016100c6565b91505092915050565b610706806101176000396000f3fe608060405234801561001057600080fd5b50600436106100365760003560e01c8063b97a23191461003b578063fb93090414610059575b600080fd5b610043610089565b60405161005091906102f7565b60405180910390f35b610073600480360381019061006e91906103b7565b6100ad565b60405161008091906102f7565b60405180910390f35b60008054906101000a900473ffffffffffffffffffffffffffffffffffffffff1681565b60008061010c60008054906101000a900473ffffffffffffffffffffffffffffffffffffffff168a8a8a8a8a8a8a6040516020016100f197969594939291906104d3565b604051602081830303815290604052805190602001206101df565b905060008190508073ffffffffffffffffffffffffffffffffffffffff16637544e6b38b8b8b8b8b8b8b6040518863ffffffff1660e01b8152600401610158979695949392919061058c565b600060405180830381600087803b15801561017257600080fd5b505af1158015610186573d6000803e3d6000fd5b505050507f74348515c094ca99c7cd832ebc8712d6707195710b22e6c3132b055ae0b5cd8b828b8b8b8b8b8b8b6040516101c79897969594939291906105f1565b60405180910390a18192505050979650505050505050565b60006040517f3d602d80600a3d3981f3363d3d373d3d3d363d7300000000000000000000000081528360601b60148201527f5af43d82803e903d91602b57fd5bf300000000000000000000000000000000006028820152826037826000f5915050600073ffffffffffffffffffffffffffffffffffffffff168173ffffffffffffffffffffffffffffffffffffffff1614156102b0576040517f08c379a00000000000000000000000000000000000000000000000000000000081526004016102a7906106b0565b60405180910390fd5b92915050565b600073ffffffffffffffffffffffffffffffffffffffff82169050919050565b60006102e1826102b6565b9050919050565b6102f1816102d6565b82525050565b600060208201905061030c60008301846102e8565b92915050565b600080fd5b600080fd5b600080fd5b600080fd5b600080fd5b60008083601f8401126103415761034061031c565b5b8235905067ffffffffffffffff81111561035e5761035d610321565b5b60208301915083600182028301111561037a57610379610326565b5b9250929050565b6000819050919050565b61039481610381565b811461039f57600080fd5b50565b6000813590506103b18161038b565b92915050565b600080600080600080600060a0888a0312156103d6576103d5610312565b5b600088013567ffffffffffffffff8111156103f4576103f3610317565b5b6104008a828b0161032b565b9750975050602088013567ffffffffffffffff81111561042357610422610317565b5b61042f8a828b0161032b565b955095505060406104428a828b016103a2565b93505060606104538a828b016103a2565b92505060806104648a828b016103a2565b91505092959891949750929550565b600081905092915050565b82818337600083830152505050565b60006104998385610473565b93506104a683858461047e565b82840190509392505050565b6000819050919050565b6104cd6104c882610381565b6104b2565b82525050565b60006104e082898b61048d565b91506104ed82878961048d565b91506104f982866104bc565b60208201915061050982856104bc565b60208201915061051982846104bc565b60208201915081905098975050505050505050565b600082825260208201905092915050565b6000601f19601f8301169050919050565b600061055c838561052e565b935061056983858461047e565b6105728361053f565b840190509392505050565b61058681610381565b82525050565b600060a08201905081810360008301526105a781898b610550565b905081810360208301526105bc818789610550565b90506105cb604083018661057d565b6105d8606083018561057d565b6105e5608083018461057d565b98975050505050505050565b600060c082019050610606600083018b6102e8565b818103602083015261061981898b610550565b9050818103604083015261062e818789610550565b905061063d606083018661057d565b61064a608083018561057d565b61065760a083018461057d565b9998505050505050505050565b7f455243313136373a2063726561746532206661696c6564000000000000000000600082015250565b600061069a60178361052e565b91506106a582610664565b602082019050919050565b600060208201905081810360008301526106c98161068d565b905091905056fea26469706673582212205725e0f137cda339d70f0c55e87e4145d807ce47266fc671da9e4cd511c4ee3f64736f6c63430008090033",
  "linkReferences": {},
  "deployedLinkReferences": {}
}