{
  "_format": "hh-sol-artifact-1",
  "contractName": "Ticket",
  "sourceName": "contracts/Ticket.sol",
  "abi": [
    {
      "inputs": [],
      "name": "FinalWinnerCanOnlyBeCalculatedAfterPeriodEnds",
      "type": "error"
    },
    {
      "inputs": [],
      "name": "LotteryHasFinished",
      "type": "error"
    },
    {
      "inputs": [],
      "name": "LotteryHasntStarted",
      "type": "error"
    },
    {
      "inputs": [],
      "name": "NoFundsToBeWon",
      "type": "error"
    },
    {
      "inputs": [],
      "name": "NotEnoughMoneyForATicket",
      "type": "error"
    },
    {
      "inputs": [],
      "name": "StartBlockShouldNotBeInThePast",
      "type": "error"
    },
    {
      "inputs": [],
      "name": "TheEndBlockShouldBeLatterThanTheStartBlock",
      "type": "error"
    },
    {
      "inputs": [],
      "name": "TicketIsNotWinningOne",
      "type": "error"
    },
    {
      "inputs": [],
      "name": "TicketPriceMustBeBiggerThanZero",
      "type": "error"
    },
    {
      "inputs": [],
      "name": "TransferFailed",
      "type": "error"
    },
    {
      "inputs": [],
      "name": "URIQueryForNonExistantToken",
      "type": "error"
    },
    {
      "inputs": [],
      "name": "YouShouldBeOwnerOrApprovedToSpendTheTicket",
      "type": "error"
    },
    {
      "anonymous": false,
      "inputs": [
        {
          "indexed": true,
          "internalType": "address",
          "name": "owner",
          "type": "address"
        },
        {
          "indexed": true,
          "internalType": "address",
          "name": "approved",
          "type": "address"
        },
        {
          "indexed": true,
          "internalType": "uint256",
          "name": "tokenId",
          "type": "uint256"
        }
      ],
      "name": "Approval",
      "type": "event"
    },
    {
      "anonymous": false,
      "inputs": [
        {
          "indexed": true,
          "internalType": "address",
          "name": "owner",
          "type": "address"
        },
        {
          "indexed": true,
          "internalType": "address",
          "name": "operator",
          "type": "address"
        },
        {
          "indexed": false,
          "internalType": "bool",
          "name": "approved",
          "type": "bool"
        }
      ],
      "name": "ApprovalForAll",
      "type": "event"
    },
    {
      "anonymous": false,
      "inputs": [
        {
          "indexed": true,
          "internalType": "uint256",
          "name": "ticketId",
          "type": "uint256"
        },
        {
          "indexed": false,
          "internalType": "uint256",
          "name": "amount",
          "type": "uint256"
        }
      ],
      "name": "FinalWinnerAwarded",
      "type": "event"
    },
    {
      "anonymous": false,
      "inputs": [
        {
          "indexed": false,
          "internalType": "uint8",
          "name": "version",
          "type": "uint8"
        }
      ],
      "name": "Initialized",
      "type": "event"
    },
    {
      "anonymous": false,
      "inputs": [
        {
          "indexed": true,
          "internalType": "address",
          "name": "previousOwner",
          "type": "address"
        },
        {
          "indexed": true,
          "internalType": "address",
          "name": "newOwner",
          "type": "address"
        }
      ],
      "name": "OwnershipTransferred",
      "type": "event"
    },
    {
      "anonymous": false,
      "inputs": [
        {
          "indexed": true,
          "internalType": "uint256",
          "name": "ticketId",
          "type": "uint256"
        },
        {
          "indexed": false,
          "internalType": "uint256",
          "name": "amount",
          "type": "uint256"
        }
      ],
      "name": "SurpriseWinnerAwarded",
      "type": "event"
    },
    {
      "anonymous": false,
      "inputs": [
        {
          "indexed": true,
          "internalType": "address",
          "name": "from",
          "type": "address"
        },
        {
          "indexed": true,
          "internalType": "address",
          "name": "to",
          "type": "address"
        },
        {
          "indexed": true,
          "internalType": "uint256",
          "name": "tokenId",
          "type": "uint256"
        }
      ],
      "name": "Transfer",
      "type": "event"
    },
    {
      "inputs": [
        {
          "internalType": "address",
          "name": "to",
          "type": "address"
        },
        {
          "internalType": "uint256",
          "name": "tokenId",
          "type": "uint256"
        }
      ],
      "name": "approve",
      "outputs": [],
      "stateMutability": "nonpayable",
      "type": "function"
    },
    {
      "inputs": [
        {
          "internalType": "address",
          "name": "owner",
          "type": "address"
        }
      ],
      "name": "balanceOf",
      "outputs": [
        {
          "internalType": "uint256",
          "name": "",
          "type": "uint256"
        }
      ],
      "stateMutability": "view",
      "type": "function"
    },
    {
      "inputs": [],
      "name": "buyTicket",
      "outputs": [],
      "stateMutability": "payable",
      "type": "function"
    },
    {
      "inputs": [],
      "name": "drawFinalWinner",
      "outputs": [],
      "stateMutability": "nonpayable",
      "type": "function"
    },
    {
      "inputs": [],
      "name": "drawSurpriseWinner",
      "outputs": [],
      "stateMutability": "nonpayable",
      "type": "function"
    },
    {
      "inputs": [
        {
          "internalType": "uint256",
          "name": "tokenId",
          "type": "uint256"
        }
      ],
      "name": "getApproved",
      "outputs": [
        {
          "internalType": "address",
          "name": "",
          "type": "address"
        }
      ],
      "stateMutability": "view",
      "type": "function"
    },
    {
      "inputs": [
        {
          "internalType": "address",
          "name": "owner",
          "type": "address"
        },
        {
          "internalType": "string",
          "name": "name",
          "type": "string"
        },
        {
          "internalType": "string",
          "name": "symbol",
          "type": "string"
        },
        {
          "internalType": "uint256",
          "name": "startBlock",
          "type": "uint256"
        },
        {
          "internalType": "uint256",
          "name": "endBlock",
          "type": "uint256"
        },
        {
          "internalType": "uint256",
          "name": "ticketPrice",
          "type": "uint256"
        },
        {
          "internalType": "string",
          "name": "ticketUri",
          "type": "string"
        }
      ],
      "name": "initialize",
      "outputs": [],
      "stateMutability": "nonpayable",
      "type": "function"
    },
    {
      "inputs": [
        {
          "internalType": "address",
          "name": "owner",
          "type": "address"
        },
        {
          "internalType": "address",
          "name": "operator",
          "type": "address"
        }
      ],
      "name": "isApprovedForAll",
      "outputs": [
        {
          "internalType": "bool",
          "name": "",
          "type": "bool"
        }
      ],
      "stateMutability": "view",
      "type": "function"
    },
    {
      "inputs": [],
      "name": "name",
      "outputs": [
        {
          "internalType": "string",
          "name": "",
          "type": "string"
        }
      ],
      "stateMutability": "view",
      "type": "function"
    },
    {
      "inputs": [],
      "name": "owner",
      "outputs": [
        {
          "internalType": "address",
          "name": "",
          "type": "address"
        }
      ],
      "stateMutability": "view",
      "type": "function"
    },
    {
      "inputs": [
        {
          "internalType": "uint256",
          "name": "tokenId",
          "type": "uint256"
        }
      ],
      "name": "ownerOf",
      "outputs": [
        {
          "internalType": "address",
          "name": "",
          "type": "address"
        }
      ],
      "stateMutability": "view",
      "type": "function"
    },
    {
      "inputs": [],
      "name": "renounceOwnership",
      "outputs": [],
      "stateMutability": "nonpayable",
      "type": "function"
    },
    {
      "inputs": [],
      "name": "s_endBlock",
      "outputs": [
        {
          "internalType": "uint256",
          "name": "",
          "type": "uint256"
        }
      ],
      "stateMutability": "view",
      "type": "function"
    },
    {
      "inputs": [],
      "name": "s_gatheredFunds",
      "outputs": [
        {
          "internalType": "uint256",
          "name": "",
          "type": "uint256"
        }
      ],
      "stateMutability": "view",
      "type": "function"
    },
    {
      "inputs": [],
      "name": "s_numberOfTickets",
      "outputs": [
        {
          "internalType": "uint256",
          "name": "",
          "type": "uint256"
        }
      ],
      "stateMutability": "view",
      "type": "function"
    },
    {
      "inputs": [],
      "name": "s_startBlock",
      "outputs": [
        {
          "internalType": "uint256",
          "name": "",
          "type": "uint256"
        }
      ],
      "stateMutability": "view",
      "type": "function"
    },
    {
      "inputs": [],
      "name": "s_ticketPrice",
      "outputs": [
        {
          "internalType": "uint256",
          "name": "",
          "type": "uint256"
        }
      ],
      "stateMutability": "view",
      "type": "function"
    },
    {
      "inputs": [
        {
          "internalType": "uint256",
          "name": "",
          "type": "uint256"
        }
      ],
      "name": "s_winnersRewards",
      "outputs": [
        {
          "internalType": "uint256",
          "name": "",
          "type": "uint256"
        }
      ],
      "stateMutability": "view",
      "type": "function"
    },
    {
      "inputs": [
        {
          "internalType": "address",
          "name": "from",
          "type": "address"
        },
        {
          "internalType": "address",
          "name": "to",
          "type": "address"
        },
        {
          "internalType": "uint256",
          "name": "tokenId",
          "type": "uint256"
        }
      ],
      "name": "safeTransferFrom",
      "outputs": [],
      "stateMutability": "nonpayable",
      "type": "function"
    },
    {
      "inputs": [
        {
          "internalType": "address",
          "name": "from",
          "type": "address"
        },
        {
          "internalType": "address",
          "name": "to",
          "type": "address"
        },
        {
          "internalType": "uint256",
          "name": "tokenId",
          "type": "uint256"
        },
        {
          "internalType": "bytes",
          "name": "_data",
          "type": "bytes"
        }
      ],
      "name": "safeTransferFrom",
      "outputs": [],
      "stateMutability": "nonpayable",
      "type": "function"
    },
    {
      "inputs": [
        {
          "internalType": "address",
          "name": "operator",
          "type": "address"
        },
        {
          "internalType": "bool",
          "name": "approved",
          "type": "bool"
        }
      ],
      "name": "setApprovalForAll",
      "outputs": [],
      "stateMutability": "nonpayable",
      "type": "function"
    },
    {
      "inputs": [
        {
          "internalType": "bytes4",
          "name": "interfaceId",
          "type": "bytes4"
        }
      ],
      "name": "supportsInterface",
      "outputs": [
        {
          "internalType": "bool",
          "name": "",
          "type": "bool"
        }
      ],
      "stateMutability": "view",
      "type": "function"
    },
    {
      "inputs": [],
      "name": "symbol",
      "outputs": [
        {
          "internalType": "string",
          "name": "",
          "type": "string"
        }
      ],
      "stateMutability": "view",
      "type": "function"
    },
    {
      "inputs": [
        {
          "internalType": "uint256",
          "name": "tokenId",
          "type": "uint256"
        }
      ],
      "name": "tokenURI",
      "outputs": [
        {
          "internalType": "string",
          "name": "",
          "type": "string"
        }
      ],
      "stateMutability": "view",
      "type": "function"
    },
    {
      "inputs": [
        {
          "internalType": "address",
          "name": "from",
          "type": "address"
        },
        {
          "internalType": "address",
          "name": "to",
          "type": "address"
        },
        {
          "internalType": "uint256",
          "name": "tokenId",
          "type": "uint256"
        }
      ],
      "name": "transferFrom",
      "outputs": [],
      "stateMutability": "nonpayable",
      "type": "function"
    },
    {
      "inputs": [
        {
          "internalType": "address",
          "name": "newOwner",
          "type": "address"
        }
      ],
      "name": "transferOwnership",
      "outputs": [],
      "stateMutability": "nonpayable",
      "type": "function"
    },
    {
      "inputs": [
        {
          "internalType": "uint256",
          "name": "ticketId",
          "type": "uint256"
        }
      ],
      "name": "withdrawWinsForTicket",
      "outputs": [],
      "stateMutability": "nonpayable",
      "type": "function"
    }
  ],
  "bytecode": "0x6080604052600060cd5534801561001557600080fd5b50612351806100256000396000f3fe6080604052600436106101ac5760003560e01c806370a08231116100ec578063b88d4fde1161008a578063e985e9c511610064578063e985e9c514610487578063edca914c146104d0578063f2fde38b146104d8578063fa674fce146104f857600080fd5b8063b88d4fde14610432578063c87b56dd14610452578063e104dafe1461047257600080fd5b806395d89b41116100c657806395d89b41146103c7578063a22cb465146103dc578063a5bf7691146103fc578063b7f206701461041c57600080fd5b806370a0823114610374578063715018a6146103945780638da5cb5b146103a957600080fd5b806323b872dd1161015957806353a3f1fa1161013357806353a3f1fa146103095780635dc191331461031e5780636352211e1461033e578063678ec2601461035e57600080fd5b806323b872dd146102b357806335317ad4146102d357806342842e0e146102e957600080fd5b8063095ea7b31161018a578063095ea7b3146102405780631aace2af146102625780631d8cdb5a1461029d57600080fd5b806301ffc9a7146101b157806306fdde03146101e6578063081812fc14610208575b600080fd5b3480156101bd57600080fd5b506101d16101cc366004611e40565b61050e565b60405190151581526020015b60405180910390f35b3480156101f257600080fd5b506101fb6105ab565b6040516101dd9190611eb1565b34801561021457600080fd5b50610228610223366004611ec4565b61063d565b6040516001600160a01b0390911681526020016101dd565b34801561024c57600080fd5b5061026061025b366004611ef4565b6106d7565b005b34801561026e57600080fd5b5061028f61027d366004611ec4565b60cf6020526000908152604090205481565b6040519081526020016101dd565b3480156102a957600080fd5b5061028f60cc5481565b3480156102bf57600080fd5b506102606102ce366004611f1e565b610809565b3480156102df57600080fd5b5061028f60cd5481565b3480156102f557600080fd5b50610260610304366004611f1e565b610890565b34801561031557600080fd5b506102606108ab565b34801561032a57600080fd5b50610260610339366004611ec4565b610a18565b34801561034a57600080fd5b50610228610359366004611ec4565b610b14565b34801561036a57600080fd5b5061028f60ca5481565b34801561038057600080fd5b5061028f61038f366004611f5a565b610b9f565b3480156103a057600080fd5b50610260610c39565b3480156103b557600080fd5b506097546001600160a01b0316610228565b3480156103d357600080fd5b506101fb610c9f565b3480156103e857600080fd5b506102606103f7366004611f75565b610cae565b34801561040857600080fd5b50610260610417366004611ffa565b610cbd565b34801561042857600080fd5b5061028f60cb5481565b34801561043e57600080fd5b5061026061044d3660046120da565b610e76565b34801561045e57600080fd5b506101fb61046d366004611ec4565b610f04565b34801561047e57600080fd5b50610260610fe7565b34801561049357600080fd5b506101d16104a23660046121b6565b6001600160a01b039182166000908152606a6020908152604080832093909416825291909152205460ff1690565b6102606110bd565b3480156104e457600080fd5b506102606104f3366004611f5a565b6111f1565b34801561050457600080fd5b5061028f60c95481565b60006001600160e01b031982167f80ac58cd00000000000000000000000000000000000000000000000000000000148061057157506001600160e01b031982167f5b5e139f00000000000000000000000000000000000000000000000000000000145b806105a557507f01ffc9a7000000000000000000000000000000000000000000000000000000006001600160e01b03198316145b92915050565b6060606580546105ba906121e9565b80601f01602080910402602001604051908101604052809291908181526020018280546105e6906121e9565b80156106335780601f1061060857610100808354040283529160200191610633565b820191906000526020600020905b81548152906001019060200180831161061657829003601f168201915b5050505050905090565b6000818152606760205260408120546001600160a01b03166106bb5760405162461bcd60e51b815260206004820152602c60248201527f4552433732313a20617070726f76656420717565727920666f72206e6f6e657860448201526b34b9ba32b73a103a37b5b2b760a11b60648201526084015b60405180910390fd5b506000908152606960205260409020546001600160a01b031690565b60006106e282610b14565b9050806001600160a01b0316836001600160a01b0316141561076c5760405162461bcd60e51b815260206004820152602160248201527f4552433732313a20617070726f76616c20746f2063757272656e74206f776e6560448201527f720000000000000000000000000000000000000000000000000000000000000060648201526084016106b2565b336001600160a01b0382161480610788575061078881336104a2565b6107fa5760405162461bcd60e51b815260206004820152603860248201527f4552433732313a20617070726f76652063616c6c6572206973206e6f74206f7760448201527f6e6572206e6f7220617070726f76656420666f7220616c6c000000000000000060648201526084016106b2565b61080483836112d0565b505050565b610813338261134b565b6108855760405162461bcd60e51b815260206004820152603160248201527f4552433732313a207472616e736665722063616c6c6572206973206e6f74206f60448201527f776e6572206e6f7220617070726f76656400000000000000000000000000000060648201526084016106b2565b610804838383611442565b61080483838360405180602001604052806000815250610e76565b6097546001600160a01b031633146109055760405162461bcd60e51b815260206004820181905260248201527f4f776e61626c653a2063616c6c6572206973206e6f7420746865206f776e657260448201526064016106b2565b60c954431015610928576040516369aef80760e01b815260040160405180910390fd5b4360ca54101561094b57604051633efc0b3760e11b815260040160405180910390fd5b60cc548061096c57604051633802b52d60e01b815260040160405180910390fd5b600061097661161c565b90506000610985600284612250565b90508060cf600084815260200190815260200160002060008282546109aa9190612264565b925050819055508060cc60008282546109c3919061227c565b9091555050600082815260cf60205260409081902054905183917f84a55a80584be4ea7d1cb03f3967b76a8498775893327322afe3683ff59ac84291610a0b91815260200190565b60405180910390a2505050565b600081815260cf602052604090205480610a5e576040517fd750c1fc00000000000000000000000000000000000000000000000000000000815260040160405180910390fd5b610a68338361134b565b610a9e576040517f8ec84e6000000000000000000000000000000000000000000000000000000000815260040160405180910390fd5b600082815260cf602052604080822082905551339083908381818185875af1925050503d8060008114610aed576040519150601f19603f3d011682016040523d82523d6000602084013e610af2565b606091505b5050905080610804576040516312171d8360e31b815260040160405180910390fd5b6000818152606760205260408120546001600160a01b0316806105a55760405162461bcd60e51b815260206004820152602960248201527f4552433732313a206f776e657220717565727920666f72206e6f6e657869737460448201527f656e7420746f6b656e000000000000000000000000000000000000000000000060648201526084016106b2565b60006001600160a01b038216610c1d5760405162461bcd60e51b815260206004820152602a60248201527f4552433732313a2062616c616e636520717565727920666f7220746865207a6560448201527f726f20616464726573730000000000000000000000000000000000000000000060648201526084016106b2565b506001600160a01b031660009081526068602052604090205490565b6097546001600160a01b03163314610c935760405162461bcd60e51b815260206004820181905260248201527f4f776e61626c653a2063616c6c6572206973206e6f7420746865206f776e657260448201526064016106b2565b610c9d6000611638565b565b6060606680546105ba906121e9565b610cb9338383611697565b5050565b6000610cc96001611766565b90508015610ce1576000805461ff0019166101001790555b43861015610d1b576040517f470cc39c00000000000000000000000000000000000000000000000000000000815260040160405180910390fd5b858511610d54576040517f16fb417a00000000000000000000000000000000000000000000000000000000815260040160405180910390fd5b83610d8b576040517fc190ae3500000000000000000000000000000000000000000000000000000000815260040160405180910390fd5b610dfe8a8a8080601f01602080910402602001604051908101604052809392919081815260200183838082843760009201919091525050604080516020601f8e018190048102820181019092528c815292508c91508b908190840183828082843760009201919091525061189f92505050565b610e078b611638565b60c986905560ca85905560cb849055610e2260ce8484611d1d565b508015610e69576000805461ff0019169055604051600181527f7f26b83ff96e1f2b6a682f133852f6798a09c465da95921460cefb38474024989060200160405180910390a15b5050505050505050505050565b610e80338361134b565b610ef25760405162461bcd60e51b815260206004820152603160248201527f4552433732313a207472616e736665722063616c6c6572206973206e6f74206f60448201527f776e6572206e6f7220617070726f76656400000000000000000000000000000060648201526084016106b2565b610efe84848484611914565b50505050565b6000818152606760205260409020546060906001600160a01b0316610f55576040517f1ee39ec900000000000000000000000000000000000000000000000000000000815260040160405180910390fd5b60ce8054610f62906121e9565b80601f0160208091040260200160405190810160405280929190818152602001828054610f8e906121e9565b8015610fdb5780601f10610fb057610100808354040283529160200191610fdb565b820191906000526020600020905b815481529060010190602001808311610fbe57829003601f168201915b50505050509050919050565b60ca544311611022576040517f2c37295800000000000000000000000000000000000000000000000000000000815260040160405180910390fd5b60cc548061104357604051633802b52d60e01b815260040160405180910390fd5b600061104d61161c565b600081815260cf6020526040812080549293508492839290611070908490612264565b9091555050600060cc81905582815260cf60205260409081902054905183917f90aeb3c5262b774f5cc119e920a789085db57808a095514087a6bd71b98b28ce91610a0b91815260200190565b60c9544310156110e0576040516369aef80760e01b815260040160405180910390fd5b60ca5443111561110357604051633efc0b3760e11b815260040160405180910390fd5b60cb5434811115611140576040517fd90a85d300000000000000000000000000000000000000000000000000000000815260040160405180910390fd5b60cd805461115f91339190600061115683612293565b9190505561199d565b8060cc60008282546111719190612264565b9091555050348110156111ee5760003361118b833461227c565b604051600081818185875af1925050503d80600081146111c7576040519150601f19603f3d011682016040523d82523d6000602084013e6111cc565b606091505b5050905080610cb9576040516312171d8360e31b815260040160405180910390fd5b50565b6097546001600160a01b0316331461124b5760405162461bcd60e51b815260206004820181905260248201527f4f776e61626c653a2063616c6c6572206973206e6f7420746865206f776e657260448201526064016106b2565b6001600160a01b0381166112c75760405162461bcd60e51b815260206004820152602660248201527f4f776e61626c653a206e6577206f776e657220697320746865207a65726f206160448201527f646472657373000000000000000000000000000000000000000000000000000060648201526084016106b2565b6111ee81611638565b6000818152606960205260409020805473ffffffffffffffffffffffffffffffffffffffff19166001600160a01b038416908117909155819061131282610b14565b6001600160a01b03167f8c5be1e5ebec7d5bd14f71427d1e84f3dd0314c0f7b2291e5b200ac8c7c3b92560405160405180910390a45050565b6000818152606760205260408120546001600160a01b03166113c45760405162461bcd60e51b815260206004820152602c60248201527f4552433732313a206f70657261746f7220717565727920666f72206e6f6e657860448201526b34b9ba32b73a103a37b5b2b760a11b60648201526084016106b2565b60006113cf83610b14565b9050806001600160a01b0316846001600160a01b0316148061141657506001600160a01b038082166000908152606a602090815260408083209388168352929052205460ff165b8061143a5750836001600160a01b031661142f8461063d565b6001600160a01b0316145b949350505050565b826001600160a01b031661145582610b14565b6001600160a01b0316146114d15760405162461bcd60e51b815260206004820152602560248201527f4552433732313a207472616e736665722066726f6d20696e636f72726563742060448201527f6f776e657200000000000000000000000000000000000000000000000000000060648201526084016106b2565b6001600160a01b03821661154c5760405162461bcd60e51b8152602060048201526024808201527f4552433732313a207472616e7366657220746f20746865207a65726f2061646460448201527f726573730000000000000000000000000000000000000000000000000000000060648201526084016106b2565b6115576000826112d0565b6001600160a01b038316600090815260686020526040812080546001929061158090849061227c565b90915550506001600160a01b03821660009081526068602052604081208054600192906115ae908490612264565b9091555050600081815260676020526040808220805473ffffffffffffffffffffffffffffffffffffffff19166001600160a01b0386811691821790925591518493918716917fddf252ad1be2c89b69c2b068fc378daa952ba7f163c4a11628f55a4df523b3ef91a4505050565b600060cd54611629611aec565b61163391906122ae565b905090565b609780546001600160a01b0383811673ffffffffffffffffffffffffffffffffffffffff19831681179093556040519116919082907f8be0079c531659141344cd1fd0a4f28419497f9722a3daafe3b4186f6b6457e090600090a35050565b816001600160a01b0316836001600160a01b031614156116f95760405162461bcd60e51b815260206004820152601960248201527f4552433732313a20617070726f766520746f2063616c6c65720000000000000060448201526064016106b2565b6001600160a01b038381166000818152606a6020908152604080832094871680845294825291829020805460ff191686151590811790915591519182527f17307eab39ab6107e8899845ad3d59bd9653f200f220920489ca2b5937696c31910160405180910390a3505050565b60008054610100900460ff1615611803578160ff1660011480156117895750303b155b6117fb5760405162461bcd60e51b815260206004820152602e60248201527f496e697469616c697a61626c653a20636f6e747261637420697320616c72656160448201527f647920696e697469616c697a656400000000000000000000000000000000000060648201526084016106b2565b506000919050565b60005460ff8084169116106118805760405162461bcd60e51b815260206004820152602e60248201527f496e697469616c697a61626c653a20636f6e747261637420697320616c72656160448201527f647920696e697469616c697a656400000000000000000000000000000000000060648201526084016106b2565b506000805460ff191660ff92909216919091179055600190565b919050565b600054610100900460ff1661190a5760405162461bcd60e51b815260206004820152602b60248201527f496e697469616c697a61626c653a20636f6e7472616374206973206e6f74206960448201526a6e697469616c697a696e6760a81b60648201526084016106b2565b610cb98282611b28565b61191f848484611442565b61192b84848484611bba565b610efe5760405162461bcd60e51b815260206004820152603260248201527f4552433732313a207472616e7366657220746f206e6f6e20455243373231526560448201527f63656976657220696d706c656d656e746572000000000000000000000000000060648201526084016106b2565b6001600160a01b0382166119f35760405162461bcd60e51b815260206004820181905260248201527f4552433732313a206d696e7420746f20746865207a65726f206164647265737360448201526064016106b2565b6000818152606760205260409020546001600160a01b031615611a585760405162461bcd60e51b815260206004820152601c60248201527f4552433732313a20746f6b656e20616c7265616479206d696e7465640000000060448201526064016106b2565b6001600160a01b0382166000908152606860205260408120805460019290611a81908490612264565b9091555050600081815260676020526040808220805473ffffffffffffffffffffffffffffffffffffffff19166001600160a01b03861690811790915590518392907fddf252ad1be2c89b69c2b068fc378daa952ba7f163c4a11628f55a4df523b3ef908290a45050565b60004442604051602001611b0a929190918252602082015260400190565b6040516020818303038152906040528051906020012060001c905090565b600054610100900460ff16611b935760405162461bcd60e51b815260206004820152602b60248201527f496e697469616c697a61626c653a20636f6e7472616374206973206e6f74206960448201526a6e697469616c697a696e6760a81b60648201526084016106b2565b8151611ba6906065906020850190611da1565b508051610804906066906020840190611da1565b60006001600160a01b0384163b15611d1257604051630a85bd0160e11b81526001600160a01b0385169063150b7a0290611bfe9033908990889088906004016122c2565b602060405180830381600087803b158015611c1857600080fd5b505af1925050508015611c48575060408051601f3d908101601f19168201909252611c45918101906122fe565b60015b611cf8573d808015611c76576040519150601f19603f3d011682016040523d82523d6000602084013e611c7b565b606091505b508051611cf05760405162461bcd60e51b815260206004820152603260248201527f4552433732313a207472616e7366657220746f206e6f6e20455243373231526560448201527f63656976657220696d706c656d656e746572000000000000000000000000000060648201526084016106b2565b805181602001fd5b6001600160e01b031916630a85bd0160e11b14905061143a565b506001949350505050565b828054611d29906121e9565b90600052602060002090601f016020900481019282611d4b5760008555611d91565b82601f10611d645782800160ff19823516178555611d91565b82800160010185558215611d91579182015b82811115611d91578235825591602001919060010190611d76565b50611d9d929150611e15565b5090565b828054611dad906121e9565b90600052602060002090601f016020900481019282611dcf5760008555611d91565b82601f10611de857805160ff1916838001178555611d91565b82800160010185558215611d91579182015b82811115611d91578251825591602001919060010190611dfa565b5b80821115611d9d5760008155600101611e16565b6001600160e01b0319811681146111ee57600080fd5b600060208284031215611e5257600080fd5b8135611e5d81611e2a565b9392505050565b6000815180845260005b81811015611e8a57602081850181015186830182015201611e6e565b81811115611e9c576000602083870101525b50601f01601f19169290920160200192915050565b602081526000611e5d6020830184611e64565b600060208284031215611ed657600080fd5b5035919050565b80356001600160a01b038116811461189a57600080fd5b60008060408385031215611f0757600080fd5b611f1083611edd565b946020939093013593505050565b600080600060608486031215611f3357600080fd5b611f3c84611edd565b9250611f4a60208501611edd565b9150604084013590509250925092565b600060208284031215611f6c57600080fd5b611e5d82611edd565b60008060408385031215611f8857600080fd5b611f9183611edd565b915060208301358015158114611fa657600080fd5b809150509250929050565b60008083601f840112611fc357600080fd5b50813567ffffffffffffffff811115611fdb57600080fd5b602083019150836020828501011115611ff357600080fd5b9250929050565b60008060008060008060008060008060e08b8d03121561201957600080fd5b6120228b611edd565b995060208b013567ffffffffffffffff8082111561203f57600080fd5b61204b8e838f01611fb1565b909b50995060408d013591508082111561206457600080fd5b6120708e838f01611fb1565b909950975060608d0135965060808d0135955060a08d0135945060c08d013591508082111561209e57600080fd5b506120ab8d828e01611fb1565b915080935050809150509295989b9194979a5092959850565b634e487b7160e01b600052604160045260246000fd5b600080600080608085870312156120f057600080fd5b6120f985611edd565b935061210760208601611edd565b925060408501359150606085013567ffffffffffffffff8082111561212b57600080fd5b818701915087601f83011261213f57600080fd5b813581811115612151576121516120c4565b604051601f8201601f19908116603f01168101908382118183101715612179576121796120c4565b816040528281528a602084870101111561219257600080fd5b82602086016020830137600060208483010152809550505050505092959194509250565b600080604083850312156121c957600080fd5b6121d283611edd565b91506121e060208401611edd565b90509250929050565b600181811c908216806121fd57607f821691505b6020821081141561221e57634e487b7160e01b600052602260045260246000fd5b50919050565b634e487b7160e01b600052601260045260246000fd5b634e487b7160e01b600052601160045260246000fd5b60008261225f5761225f612224565b500490565b600082198211156122775761227761223a565b500190565b60008282101561228e5761228e61223a565b500390565b60006000198214156122a7576122a761223a565b5060010190565b6000826122bd576122bd612224565b500690565b60006001600160a01b038087168352808616602084015250836040830152608060608301526122f46080830184611e64565b9695505050505050565b60006020828403121561231057600080fd5b8151611e5d81611e2a56fea26469706673582212209bdd74b5266912c57307213e1567de93a15ad39cbb9e58f4eed32311d579597864736f6c63430008090033",
  "linkReferences": {},
  "deployedLinkReferences": {}
}