{
  "_format": "hh-sol-artifact-1",
  "contractName": "Ticket",
  "sourceName": "contracts/Ticket.sol",
  "abi": [
    {
      "anonymous": false,
      "inputs": [
        {
          "indexed": true,
          "internalType": "address",
          "name": "owner",
          "type": "address"
        },
        {
          "indexed": true,
          "internalType": "address",
          "name": "approved",
          "type": "address"
        },
        {
          "indexed": true,
          "internalType": "uint256",
          "name": "tokenId",
          "type": "uint256"
        }
      ],
      "name": "Approval",
      "type": "event"
    },
    {
      "anonymous": false,
      "inputs": [
        {
          "indexed": true,
          "internalType": "address",
          "name": "owner",
          "type": "address"
        },
        {
          "indexed": true,
          "internalType": "address",
          "name": "operator",
          "type": "address"
        },
        {
          "indexed": false,
          "internalType": "bool",
          "name": "approved",
          "type": "bool"
        }
      ],
      "name": "ApprovalForAll",
      "type": "event"
    },
    {
      "anonymous": false,
      "inputs": [
        {
          "indexed": true,
          "internalType": "uint256",
          "name": "tickedId",
          "type": "uint256"
        },
        {
          "indexed": false,
          "internalType": "uint256",
          "name": "amount",
          "type": "uint256"
        }
      ],
      "name": "FinalWinnerAwarded",
      "type": "event"
    },
    {
      "anonymous": false,
      "inputs": [
        {
          "indexed": false,
          "internalType": "uint8",
          "name": "version",
          "type": "uint8"
        }
      ],
      "name": "Initialized",
      "type": "event"
    },
    {
      "anonymous": false,
      "inputs": [
        {
          "indexed": true,
          "internalType": "address",
          "name": "previousOwner",
          "type": "address"
        },
        {
          "indexed": true,
          "internalType": "address",
          "name": "newOwner",
          "type": "address"
        }
      ],
      "name": "OwnershipTransferred",
      "type": "event"
    },
    {
      "anonymous": false,
      "inputs": [
        {
          "indexed": true,
          "internalType": "uint256",
          "name": "ticketId",
          "type": "uint256"
        },
        {
          "indexed": false,
          "internalType": "uint256",
          "name": "amount",
          "type": "uint256"
        }
      ],
      "name": "SupriseWinnerAwarded",
      "type": "event"
    },
    {
      "anonymous": false,
      "inputs": [
        {
          "indexed": true,
          "internalType": "address",
          "name": "from",
          "type": "address"
        },
        {
          "indexed": true,
          "internalType": "address",
          "name": "to",
          "type": "address"
        },
        {
          "indexed": true,
          "internalType": "uint256",
          "name": "tokenId",
          "type": "uint256"
        }
      ],
      "name": "Transfer",
      "type": "event"
    },
    {
      "inputs": [
        {
          "internalType": "address",
          "name": "to",
          "type": "address"
        },
        {
          "internalType": "uint256",
          "name": "tokenId",
          "type": "uint256"
        }
      ],
      "name": "approve",
      "outputs": [],
      "stateMutability": "nonpayable",
      "type": "function"
    },
    {
      "inputs": [
        {
          "internalType": "address",
          "name": "owner",
          "type": "address"
        }
      ],
      "name": "balanceOf",
      "outputs": [
        {
          "internalType": "uint256",
          "name": "",
          "type": "uint256"
        }
      ],
      "stateMutability": "view",
      "type": "function"
    },
    {
      "inputs": [],
      "name": "buyTicket",
      "outputs": [],
      "stateMutability": "payable",
      "type": "function"
    },
    {
      "inputs": [],
      "name": "finalWinner",
      "outputs": [],
      "stateMutability": "nonpayable",
      "type": "function"
    },
    {
      "inputs": [
        {
          "internalType": "uint256",
          "name": "tokenId",
          "type": "uint256"
        }
      ],
      "name": "getApproved",
      "outputs": [
        {
          "internalType": "address",
          "name": "",
          "type": "address"
        }
      ],
      "stateMutability": "view",
      "type": "function"
    },
    {
      "inputs": [
        {
          "internalType": "string",
          "name": "name",
          "type": "string"
        },
        {
          "internalType": "string",
          "name": "symbol",
          "type": "string"
        },
        {
          "internalType": "uint256",
          "name": "startBlock",
          "type": "uint256"
        },
        {
          "internalType": "uint256",
          "name": "endBlock",
          "type": "uint256"
        },
        {
          "internalType": "uint256",
          "name": "ticketPrice",
          "type": "uint256"
        }
      ],
      "name": "initialize",
      "outputs": [],
      "stateMutability": "nonpayable",
      "type": "function"
    },
    {
      "inputs": [
        {
          "internalType": "address",
          "name": "owner",
          "type": "address"
        },
        {
          "internalType": "address",
          "name": "operator",
          "type": "address"
        }
      ],
      "name": "isApprovedForAll",
      "outputs": [
        {
          "internalType": "bool",
          "name": "",
          "type": "bool"
        }
      ],
      "stateMutability": "view",
      "type": "function"
    },
    {
      "inputs": [],
      "name": "name",
      "outputs": [
        {
          "internalType": "string",
          "name": "",
          "type": "string"
        }
      ],
      "stateMutability": "view",
      "type": "function"
    },
    {
      "inputs": [],
      "name": "owner",
      "outputs": [
        {
          "internalType": "address",
          "name": "",
          "type": "address"
        }
      ],
      "stateMutability": "view",
      "type": "function"
    },
    {
      "inputs": [
        {
          "internalType": "uint256",
          "name": "tokenId",
          "type": "uint256"
        }
      ],
      "name": "ownerOf",
      "outputs": [
        {
          "internalType": "address",
          "name": "",
          "type": "address"
        }
      ],
      "stateMutability": "view",
      "type": "function"
    },
    {
      "inputs": [],
      "name": "renounceOwnership",
      "outputs": [],
      "stateMutability": "nonpayable",
      "type": "function"
    },
    {
      "inputs": [],
      "name": "s_endBlock",
      "outputs": [
        {
          "internalType": "uint256",
          "name": "",
          "type": "uint256"
        }
      ],
      "stateMutability": "view",
      "type": "function"
    },
    {
      "inputs": [],
      "name": "s_numberOfTickets",
      "outputs": [
        {
          "internalType": "uint256",
          "name": "",
          "type": "uint256"
        }
      ],
      "stateMutability": "view",
      "type": "function"
    },
    {
      "inputs": [],
      "name": "s_startBlock",
      "outputs": [
        {
          "internalType": "uint256",
          "name": "",
          "type": "uint256"
        }
      ],
      "stateMutability": "view",
      "type": "function"
    },
    {
      "inputs": [],
      "name": "s_ticketPrice",
      "outputs": [
        {
          "internalType": "uint256",
          "name": "",
          "type": "uint256"
        }
      ],
      "stateMutability": "view",
      "type": "function"
    },
    {
      "inputs": [
        {
          "internalType": "address",
          "name": "from",
          "type": "address"
        },
        {
          "internalType": "address",
          "name": "to",
          "type": "address"
        },
        {
          "internalType": "uint256",
          "name": "tokenId",
          "type": "uint256"
        }
      ],
      "name": "safeTransferFrom",
      "outputs": [],
      "stateMutability": "nonpayable",
      "type": "function"
    },
    {
      "inputs": [
        {
          "internalType": "address",
          "name": "from",
          "type": "address"
        },
        {
          "internalType": "address",
          "name": "to",
          "type": "address"
        },
        {
          "internalType": "uint256",
          "name": "tokenId",
          "type": "uint256"
        },
        {
          "internalType": "bytes",
          "name": "_data",
          "type": "bytes"
        }
      ],
      "name": "safeTransferFrom",
      "outputs": [],
      "stateMutability": "nonpayable",
      "type": "function"
    },
    {
      "inputs": [
        {
          "internalType": "address",
          "name": "operator",
          "type": "address"
        },
        {
          "internalType": "bool",
          "name": "approved",
          "type": "bool"
        }
      ],
      "name": "setApprovalForAll",
      "outputs": [],
      "stateMutability": "nonpayable",
      "type": "function"
    },
    {
      "inputs": [
        {
          "internalType": "bytes4",
          "name": "interfaceId",
          "type": "bytes4"
        }
      ],
      "name": "supportsInterface",
      "outputs": [
        {
          "internalType": "bool",
          "name": "",
          "type": "bool"
        }
      ],
      "stateMutability": "view",
      "type": "function"
    },
    {
      "inputs": [],
      "name": "surpriseWinner",
      "outputs": [],
      "stateMutability": "nonpayable",
      "type": "function"
    },
    {
      "inputs": [],
      "name": "symbol",
      "outputs": [
        {
          "internalType": "string",
          "name": "",
          "type": "string"
        }
      ],
      "stateMutability": "view",
      "type": "function"
    },
    {
      "inputs": [
        {
          "internalType": "uint256",
          "name": "tokenId",
          "type": "uint256"
        }
      ],
      "name": "tokenURI",
      "outputs": [
        {
          "internalType": "string",
          "name": "",
          "type": "string"
        }
      ],
      "stateMutability": "view",
      "type": "function"
    },
    {
      "inputs": [
        {
          "internalType": "address",
          "name": "from",
          "type": "address"
        },
        {
          "internalType": "address",
          "name": "to",
          "type": "address"
        },
        {
          "internalType": "uint256",
          "name": "tokenId",
          "type": "uint256"
        }
      ],
      "name": "transferFrom",
      "outputs": [],
      "stateMutability": "nonpayable",
      "type": "function"
    },
    {
      "inputs": [
        {
          "internalType": "address",
          "name": "newOwner",
          "type": "address"
        }
      ],
      "name": "transferOwnership",
      "outputs": [],
      "stateMutability": "nonpayable",
      "type": "function"
    },
    {
      "inputs": [
        {
          "internalType": "uint256",
          "name": "ticketId",
          "type": "uint256"
        }
      ],
      "name": "withdrawWinsForTicket",
      "outputs": [],
      "stateMutability": "nonpayable",
      "type": "function"
    }
  ],
  "bytecode": "0x6080604052600060cd5534801561001557600080fd5b5061419c806100256000396000f3fe6080604052600436106101665760003560e01c8063715018a6116100d1578063b88d4fde1161008a578063e985e9c511610064578063e985e9c514610502578063edca914c1461053f578063f2fde38b14610549578063fa674fce1461057257610166565b8063b88d4fde14610485578063bce1e018146104ae578063c87b56dd146104c557610166565b8063715018a61461039b5780637544e6b3146103b25780638da5cb5b146103db57806395d89b4114610406578063a22cb46514610431578063b7f206701461045a57610166565b806335317ad41161012357806335317ad41461027957806342842e0e146102a45780635dc19133146102cd5780636352211e146102f6578063678ec2601461033357806370a082311461035e57610166565b806301ffc9a71461016b57806306fdde03146101a8578063081812fc146101d3578063095ea7b3146102105780631e0419d41461023957806323b872dd14610250575b600080fd5b34801561017757600080fd5b50610192600480360381019061018d91906126a7565b61059d565b60405161019f91906126ef565b60405180910390f35b3480156101b457600080fd5b506101bd61067f565b6040516101ca91906127a3565b60405180910390f35b3480156101df57600080fd5b506101fa60048036038101906101f591906127fb565b610711565b6040516102079190612869565b60405180910390f35b34801561021c57600080fd5b50610237600480360381019061023291906128b0565b610796565b005b34801561024557600080fd5b5061024e6108ae565b005b34801561025c57600080fd5b50610277600480360381019061027291906128f0565b6109a6565b005b34801561028557600080fd5b5061028e610a06565b60405161029b9190612952565b60405180910390f35b3480156102b057600080fd5b506102cb60048036038101906102c691906128f0565b610a0c565b005b3480156102d957600080fd5b506102f460048036038101906102ef91906127fb565b610a2c565b005b34801561030257600080fd5b5061031d600480360381019061031891906127fb565b610bad565b60405161032a9190612869565b60405180910390f35b34801561033f57600080fd5b50610348610c5f565b6040516103559190612952565b60405180910390f35b34801561036a57600080fd5b506103856004803603810190610380919061296d565b610c65565b6040516103929190612952565b60405180910390f35b3480156103a757600080fd5b506103b0610d1d565b005b3480156103be57600080fd5b506103d960048036038101906103d491906129ff565b610da5565b005b3480156103e757600080fd5b506103f0610faf565b6040516103fd9190612869565b60405180910390f35b34801561041257600080fd5b5061041b610fd9565b60405161042891906127a3565b60405180910390f35b34801561043d57600080fd5b5061045860048036038101906104539190612ae7565b61106b565b005b34801561046657600080fd5b5061046f611081565b60405161047c9190612952565b60405180910390f35b34801561049157600080fd5b506104ac60048036038101906104a79190612c57565b611087565b005b3480156104ba57600080fd5b506104c36110e9565b005b3480156104d157600080fd5b506104ec60048036038101906104e791906127fb565b611236565b6040516104f991906127a3565b60405180910390f35b34801561050e57600080fd5b5061052960048036038101906105249190612cda565b6112dd565b60405161053691906126ef565b60405180910390f35b610547611371565b005b34801561055557600080fd5b50610570600480360381019061056b919061296d565b611542565b005b34801561057e57600080fd5b5061058761163a565b6040516105949190612952565b60405180910390f35b60007f80ac58cd000000000000000000000000000000000000000000000000000000007bffffffffffffffffffffffffffffffffffffffffffffffffffffffff1916827bffffffffffffffffffffffffffffffffffffffffffffffffffffffff1916148061066857507f5b5e139f000000000000000000000000000000000000000000000000000000007bffffffffffffffffffffffffffffffffffffffffffffffffffffffff1916827bffffffffffffffffffffffffffffffffffffffffffffffffffffffff1916145b80610678575061067782611640565b5b9050919050565b60606065805461068e90612d49565b80601f01602080910402602001604051908101604052809291908181526020018280546106ba90612d49565b80156107075780601f106106dc57610100808354040283529160200191610707565b820191906000526020600020905b8154815290600101906020018083116106ea57829003601f168201915b5050505050905090565b600061071c826116aa565b61075b576040517f08c379a000000000000000000000000000000000000000000000000000000000815260040161075290612ded565b60405180910390fd5b6069600083815260200190815260200160002060009054906101000a900473ffffffffffffffffffffffffffffffffffffffff169050919050565b60006107a182610bad565b90508073ffffffffffffffffffffffffffffffffffffffff168373ffffffffffffffffffffffffffffffffffffffff161415610812576040517f08c379a000000000000000000000000000000000000000000000000000000000815260040161080990612e7f565b60405180910390fd5b8073ffffffffffffffffffffffffffffffffffffffff16610831611716565b73ffffffffffffffffffffffffffffffffffffffff161480610860575061085f8161085a611716565b6112dd565b5b61089f576040517f08c379a000000000000000000000000000000000000000000000000000000000815260040161089690612f11565b60405180910390fd5b6108a9838361171e565b505050565b60ca5443116108f2576040517f08c379a00000000000000000000000000000000000000000000000000000000081526004016108e990612fa3565b60405180910390fd5b600060cc5411610937576040517f08c379a000000000000000000000000000000000000000000000000000000000815260040161092e9061300f565b60405180910390fd5b60006109416117d7565b9050600060cc5490508060ce600084815260200190815260200160002081905550600060cc81905550817f90aeb3c5262b774f5cc119e920a789085db57808a095514087a6bd71b98b28ce8260405161099a9190612952565b60405180910390a25050565b6109b76109b1611716565b826117f3565b6109f6576040517f08c379a00000000000000000000000000000000000000000000000000000000081526004016109ed906130a1565b60405180910390fd5b610a018383836118d1565b505050565b60cd5481565b610a2783838360405180602001604052806000815250611087565b505050565b600060ce60008381526020019081526020016000205411610a82576040517f08c379a0000000000000000000000000000000000000000000000000000000008152600401610a799061310d565b60405180910390fd5b610a8c33826117f3565b610acb576040517f08c379a0000000000000000000000000000000000000000000000000000000008152600401610ac29061319f565b60405180910390fd5b600060ce6000838152602001908152602001600020549050600060ce60008481526020019081526020016000208190555060003373ffffffffffffffffffffffffffffffffffffffff1682604051610b22906131f0565b60006040518083038185875af1925050503d8060008114610b5f576040519150601f19603f3d011682016040523d82523d6000602084013e610b64565b606091505b5050905080610ba8576040517f08c379a0000000000000000000000000000000000000000000000000000000008152600401610b9f90613251565b60405180910390fd5b505050565b6000806067600084815260200190815260200160002060009054906101000a900473ffffffffffffffffffffffffffffffffffffffff169050600073ffffffffffffffffffffffffffffffffffffffff168173ffffffffffffffffffffffffffffffffffffffff161415610c56576040517f08c379a0000000000000000000000000000000000000000000000000000000008152600401610c4d906132e3565b60405180910390fd5b80915050919050565b60ca5481565b60008073ffffffffffffffffffffffffffffffffffffffff168273ffffffffffffffffffffffffffffffffffffffff161415610cd6576040517f08c379a0000000000000000000000000000000000000000000000000000000008152600401610ccd90613375565b60405180910390fd5b606860008373ffffffffffffffffffffffffffffffffffffffff1673ffffffffffffffffffffffffffffffffffffffff168152602001908152602001600020549050919050565b610d25611716565b73ffffffffffffffffffffffffffffffffffffffff16610d43610faf565b73ffffffffffffffffffffffffffffffffffffffff1614610d99576040517f08c379a0000000000000000000000000000000000000000000000000000000008152600401610d90906133e1565b60405180910390fd5b610da36000611b38565b565b6000610db16001611bfe565b90508015610dd5576001600060016101000a81548160ff0219169083151502179055505b43841015610e18576040517f08c379a0000000000000000000000000000000000000000000000000000000008152600401610e0f90613473565b60405180910390fd5b838311610e5a576040517f08c379a0000000000000000000000000000000000000000000000000000000008152600401610e5190613505565b60405180910390fd5b60008211610e9d576040517f08c379a0000000000000000000000000000000000000000000000000000000008152600401610e9490613597565b60405180910390fd5b610f2f88888080601f016020809104026020016040519081016040528093929190818152602001838380828437600081840152601f19601f8201169050808301925050505050505087878080601f016020809104026020016040519081016040528093929190818152602001838380828437600081840152601f19601f82011690508083019250505050505050611cee565b610f37611d4b565b8360c9819055508260ca819055508160cb819055508015610fa55760008060016101000a81548160ff0219169083151502179055507f7f26b83ff96e1f2b6a682f133852f6798a09c465da95921460cefb38474024986001604051610f9c9190613609565b60405180910390a15b5050505050505050565b6000609760009054906101000a900473ffffffffffffffffffffffffffffffffffffffff16905090565b606060668054610fe890612d49565b80601f016020809104026020016040519081016040528092919081815260200182805461101490612d49565b80156110615780601f1061103657610100808354040283529160200191611061565b820191906000526020600020905b81548152906001019060200180831161104457829003601f168201915b5050505050905090565b61107d611076611716565b8383611da4565b5050565b60cb5481565b611098611092611716565b836117f3565b6110d7576040517f08c379a00000000000000000000000000000000000000000000000000000000081526004016110ce906130a1565b60405180910390fd5b6110e384848484611f11565b50505050565b6110f1611716565b73ffffffffffffffffffffffffffffffffffffffff1661110f610faf565b73ffffffffffffffffffffffffffffffffffffffff1614611165576040517f08c379a000000000000000000000000000000000000000000000000000000000815260040161115c906133e1565b60405180910390fd5b600060cd54116111aa576040517f08c379a00000000000000000000000000000000000000000000000000000000081526004016111a190613670565b60405180910390fd5b60006111b46117d7565b90506000600260cc546111c791906136ee565b90508060ce6000848152602001908152602001600020819055508060cc60008282546111f3919061371f565b92505081905550817fa9da2539dbe6453eead437dc85b200629d087494d3b15004ce4272bf2b047ce58260405161122a9190612952565b60405180910390a25050565b6060611241826116aa565b611280576040517f08c379a0000000000000000000000000000000000000000000000000000000008152600401611277906137c5565b60405180910390fd5b600061128a611f6d565b905060008151116112aa57604051806020016040528060008152506112d5565b806112b484611f84565b6040516020016112c5929190613821565b6040516020818303038152906040525b915050919050565b6000606a60008473ffffffffffffffffffffffffffffffffffffffff1673ffffffffffffffffffffffffffffffffffffffff16815260200190815260200160002060008373ffffffffffffffffffffffffffffffffffffffff1673ffffffffffffffffffffffffffffffffffffffff16815260200190815260200160002060009054906101000a900460ff16905092915050565b60c9544310156113b6576040517f08c379a00000000000000000000000000000000000000000000000000000000081526004016113ad90613891565b60405180910390fd5b60ca544311156113fb576040517f08c379a00000000000000000000000000000000000000000000000000000000081526004016113f2906138fd565b60405180910390fd5b60cb54341015611440576040517f08c379a000000000000000000000000000000000000000000000000000000000815260040161143790613969565b60405180910390fd5b6114603360cd600081548092919061145790613989565b919050556120e5565b60cb5460cc600082825461147491906139d2565b9250508190555060cb543411156115405760003373ffffffffffffffffffffffffffffffffffffffff1660cb54346114ac919061371f565b6040516114b8906131f0565b60006040518083038185875af1925050503d80600081146114f5576040519150601f19603f3d011682016040523d82523d6000602084013e6114fa565b606091505b505090508061153e576040517f08c379a000000000000000000000000000000000000000000000000000000000815260040161153590613a74565b60405180910390fd5b505b565b61154a611716565b73ffffffffffffffffffffffffffffffffffffffff16611568610faf565b73ffffffffffffffffffffffffffffffffffffffff16146115be576040517f08c379a00000000000000000000000000000000000000000000000000000000081526004016115b5906133e1565b60405180910390fd5b600073ffffffffffffffffffffffffffffffffffffffff168173ffffffffffffffffffffffffffffffffffffffff16141561162e576040517f08c379a000000000000000000000000000000000000000000000000000000000815260040161162590613b06565b60405180910390fd5b61163781611b38565b50565b60c95481565b60007f01ffc9a7000000000000000000000000000000000000000000000000000000007bffffffffffffffffffffffffffffffffffffffffffffffffffffffff1916827bffffffffffffffffffffffffffffffffffffffffffffffffffffffff1916149050919050565b60008073ffffffffffffffffffffffffffffffffffffffff166067600084815260200190815260200160002060009054906101000a900473ffffffffffffffffffffffffffffffffffffffff1673ffffffffffffffffffffffffffffffffffffffff1614159050919050565b600033905090565b816069600083815260200190815260200160002060006101000a81548173ffffffffffffffffffffffffffffffffffffffff021916908373ffffffffffffffffffffffffffffffffffffffff160217905550808273ffffffffffffffffffffffffffffffffffffffff1661179183610bad565b73ffffffffffffffffffffffffffffffffffffffff167f8c5be1e5ebec7d5bd14f71427d1e84f3dd0314c0f7b2291e5b200ac8c7c3b92560405160405180910390a45050565b600060cd546117e46122bf565b6117ee9190613b26565b905090565b60006117fe826116aa565b61183d576040517f08c379a000000000000000000000000000000000000000000000000000000000815260040161183490613bc9565b60405180910390fd5b600061184883610bad565b90508073ffffffffffffffffffffffffffffffffffffffff168473ffffffffffffffffffffffffffffffffffffffff16148061188a575061188981856112dd565b5b806118c857508373ffffffffffffffffffffffffffffffffffffffff166118b084610711565b73ffffffffffffffffffffffffffffffffffffffff16145b91505092915050565b8273ffffffffffffffffffffffffffffffffffffffff166118f182610bad565b73ffffffffffffffffffffffffffffffffffffffff1614611947576040517f08c379a000000000000000000000000000000000000000000000000000000000815260040161193e90613c5b565b60405180910390fd5b600073ffffffffffffffffffffffffffffffffffffffff168273ffffffffffffffffffffffffffffffffffffffff1614156119b7576040517f08c379a00000000000000000000000000000000000000000000000000000000081526004016119ae90613ced565b60405180910390fd5b6119c28383836122f2565b6119cd60008261171e565b6001606860008573ffffffffffffffffffffffffffffffffffffffff1673ffffffffffffffffffffffffffffffffffffffff1681526020019081526020016000206000828254611a1d919061371f565b925050819055506001606860008473ffffffffffffffffffffffffffffffffffffffff1673ffffffffffffffffffffffffffffffffffffffff1681526020019081526020016000206000828254611a7491906139d2565b92505081905550816067600083815260200190815260200160002060006101000a81548173ffffffffffffffffffffffffffffffffffffffff021916908373ffffffffffffffffffffffffffffffffffffffff160217905550808273ffffffffffffffffffffffffffffffffffffffff168473ffffffffffffffffffffffffffffffffffffffff167fddf252ad1be2c89b69c2b068fc378daa952ba7f163c4a11628f55a4df523b3ef60405160405180910390a4611b338383836122f7565b505050565b6000609760009054906101000a900473ffffffffffffffffffffffffffffffffffffffff16905081609760006101000a81548173ffffffffffffffffffffffffffffffffffffffff021916908373ffffffffffffffffffffffffffffffffffffffff1602179055508173ffffffffffffffffffffffffffffffffffffffff168173ffffffffffffffffffffffffffffffffffffffff167f8be0079c531659141344cd1fd0a4f28419497f9722a3daafe3b4186f6b6457e060405160405180910390a35050565b60008060019054906101000a900460ff1615611c755760018260ff16148015611c2d5750611c2b306122fc565b155b611c6c576040517f08c379a0000000000000000000000000000000000000000000000000000000008152600401611c6390613d7f565b60405180910390fd5b60009050611ce9565b8160ff1660008054906101000a900460ff1660ff1610611cca576040517f08c379a0000000000000000000000000000000000000000000000000000000008152600401611cc190613d7f565b60405180910390fd5b816000806101000a81548160ff021916908360ff160217905550600190505b919050565b600060019054906101000a900460ff16611d3d576040517f08c379a0000000000000000000000000000000000000000000000000000000008152600401611d3490613e11565b60405180910390fd5b611d47828261231f565b5050565b600060019054906101000a900460ff16611d9a576040517f08c379a0000000000000000000000000000000000000000000000000000000008152600401611d9190613e11565b60405180910390fd5b611da26123a0565b565b8173ffffffffffffffffffffffffffffffffffffffff168373ffffffffffffffffffffffffffffffffffffffff161415611e13576040517f08c379a0000000000000000000000000000000000000000000000000000000008152600401611e0a90613e7d565b60405180910390fd5b80606a60008573ffffffffffffffffffffffffffffffffffffffff1673ffffffffffffffffffffffffffffffffffffffff16815260200190815260200160002060008473ffffffffffffffffffffffffffffffffffffffff1673ffffffffffffffffffffffffffffffffffffffff16815260200190815260200160002060006101000a81548160ff0219169083151502179055508173ffffffffffffffffffffffffffffffffffffffff168373ffffffffffffffffffffffffffffffffffffffff167f17307eab39ab6107e8899845ad3d59bd9653f200f220920489ca2b5937696c3183604051611f0491906126ef565b60405180910390a3505050565b611f1c8484846118d1565b611f2884848484612401565b611f67576040517f08c379a0000000000000000000000000000000000000000000000000000000008152600401611f5e90613f0f565b60405180910390fd5b50505050565b606060405180602001604052806000815250905090565b60606000821415611fcc576040518060400160405280600181526020017f300000000000000000000000000000000000000000000000000000000000000081525090506120e0565b600082905060005b60008214611ffe578080611fe790613989565b915050600a82611ff791906136ee565b9150611fd4565b60008167ffffffffffffffff81111561201a57612019612b2c565b5b6040519080825280601f01601f19166020018201604052801561204c5781602001600182028036833780820191505090505b5090505b600085146120d957600182612065919061371f565b9150600a856120749190613b26565b603061208091906139d2565b60f81b81838151811061209657612095613f2f565b5b60200101907effffffffffffffffffffffffffffffffffffffffffffffffffffffffffffff1916908160001a905350600a856120d291906136ee565b9450612050565b8093505050505b919050565b600073ffffffffffffffffffffffffffffffffffffffff168273ffffffffffffffffffffffffffffffffffffffff161415612155576040517f08c379a000000000000000000000000000000000000000000000000000000000815260040161214c90613faa565b60405180910390fd5b61215e816116aa565b1561219e576040517f08c379a000000000000000000000000000000000000000000000000000000000815260040161219590614016565b60405180910390fd5b6121aa600083836122f2565b6001606860008473ffffffffffffffffffffffffffffffffffffffff1673ffffffffffffffffffffffffffffffffffffffff16815260200190815260200160002060008282546121fa91906139d2565b92505081905550816067600083815260200190815260200160002060006101000a81548173ffffffffffffffffffffffffffffffffffffffff021916908373ffffffffffffffffffffffffffffffffffffffff160217905550808273ffffffffffffffffffffffffffffffffffffffff16600073ffffffffffffffffffffffffffffffffffffffff167fddf252ad1be2c89b69c2b068fc378daa952ba7f163c4a11628f55a4df523b3ef60405160405180910390a46122bb600083836122f7565b5050565b600044426040516020016122d4929190614057565b6040516020818303038152906040528051906020012060001c905090565b505050565b505050565b6000808273ffffffffffffffffffffffffffffffffffffffff163b119050919050565b600060019054906101000a900460ff1661236e576040517f08c379a000000000000000000000000000000000000000000000000000000000815260040161236590613e11565b60405180910390fd5b8160659080519060200190612384929190612598565b50806066908051906020019061239b929190612598565b505050565b600060019054906101000a900460ff166123ef576040517f08c379a00000000000000000000000000000000000000000000000000000000081526004016123e690613e11565b60405180910390fd5b6123ff6123fa611716565b611b38565b565b60006124228473ffffffffffffffffffffffffffffffffffffffff166122fc565b1561258b578373ffffffffffffffffffffffffffffffffffffffff1663150b7a0261244b611716565b8786866040518563ffffffff1660e01b815260040161246d94939291906140d8565b602060405180830381600087803b15801561248757600080fd5b505af19250505080156124b857506040513d601f19601f820116820180604052508101906124b59190614139565b60015b61253b573d80600081146124e8576040519150601f19603f3d011682016040523d82523d6000602084013e6124ed565b606091505b50600081511415612533576040517f08c379a000000000000000000000000000000000000000000000000000000000815260040161252a90613f0f565b60405180910390fd5b805181602001fd5b63150b7a0260e01b7bffffffffffffffffffffffffffffffffffffffffffffffffffffffff1916817bffffffffffffffffffffffffffffffffffffffffffffffffffffffff191614915050612590565b600190505b949350505050565b8280546125a490612d49565b90600052602060002090601f0160209004810192826125c6576000855561260d565b82601f106125df57805160ff191683800117855561260d565b8280016001018555821561260d579182015b8281111561260c5782518255916020019190600101906125f1565b5b50905061261a919061261e565b5090565b5b8082111561263757600081600090555060010161261f565b5090565b6000604051905090565b600080fd5b600080fd5b60007fffffffff0000000000000000000000000000000000000000000000000000000082169050919050565b6126848161264f565b811461268f57600080fd5b50565b6000813590506126a18161267b565b92915050565b6000602082840312156126bd576126bc612645565b5b60006126cb84828501612692565b91505092915050565b60008115159050919050565b6126e9816126d4565b82525050565b600060208201905061270460008301846126e0565b92915050565b600081519050919050565b600082825260208201905092915050565b60005b83811015612744578082015181840152602081019050612729565b83811115612753576000848401525b50505050565b6000601f19601f8301169050919050565b60006127758261270a565b61277f8185612715565b935061278f818560208601612726565b61279881612759565b840191505092915050565b600060208201905081810360008301526127bd818461276a565b905092915050565b6000819050919050565b6127d8816127c5565b81146127e357600080fd5b50565b6000813590506127f5816127cf565b92915050565b60006020828403121561281157612810612645565b5b600061281f848285016127e6565b91505092915050565b600073ffffffffffffffffffffffffffffffffffffffff82169050919050565b600061285382612828565b9050919050565b61286381612848565b82525050565b600060208201905061287e600083018461285a565b92915050565b61288d81612848565b811461289857600080fd5b50565b6000813590506128aa81612884565b92915050565b600080604083850312156128c7576128c6612645565b5b60006128d58582860161289b565b92505060206128e6858286016127e6565b9150509250929050565b60008060006060848603121561290957612908612645565b5b60006129178682870161289b565b93505060206129288682870161289b565b9250506040612939868287016127e6565b9150509250925092565b61294c816127c5565b82525050565b60006020820190506129676000830184612943565b92915050565b60006020828403121561298357612982612645565b5b60006129918482850161289b565b91505092915050565b600080fd5b600080fd5b600080fd5b60008083601f8401126129bf576129be61299a565b5b8235905067ffffffffffffffff8111156129dc576129db61299f565b5b6020830191508360018202830111156129f8576129f76129a4565b5b9250929050565b600080600080600080600060a0888a031215612a1e57612a1d612645565b5b600088013567ffffffffffffffff811115612a3c57612a3b61264a565b5b612a488a828b016129a9565b9750975050602088013567ffffffffffffffff811115612a6b57612a6a61264a565b5b612a778a828b016129a9565b95509550506040612a8a8a828b016127e6565b9350506060612a9b8a828b016127e6565b9250506080612aac8a828b016127e6565b91505092959891949750929550565b612ac4816126d4565b8114612acf57600080fd5b50565b600081359050612ae181612abb565b92915050565b60008060408385031215612afe57612afd612645565b5b6000612b0c8582860161289b565b9250506020612b1d85828601612ad2565b9150509250929050565b600080fd5b7f4e487b7100000000000000000000000000000000000000000000000000000000600052604160045260246000fd5b612b6482612759565b810181811067ffffffffffffffff82111715612b8357612b82612b2c565b5b80604052505050565b6000612b9661263b565b9050612ba28282612b5b565b919050565b600067ffffffffffffffff821115612bc257612bc1612b2c565b5b612bcb82612759565b9050602081019050919050565b82818337600083830152505050565b6000612bfa612bf584612ba7565b612b8c565b905082815260208101848484011115612c1657612c15612b27565b5b612c21848285612bd8565b509392505050565b600082601f830112612c3e57612c3d61299a565b5b8135612c4e848260208601612be7565b91505092915050565b60008060008060808587031215612c7157612c70612645565b5b6000612c7f8782880161289b565b9450506020612c908782880161289b565b9350506040612ca1878288016127e6565b925050606085013567ffffffffffffffff811115612cc257612cc161264a565b5b612cce87828801612c29565b91505092959194509250565b60008060408385031215612cf157612cf0612645565b5b6000612cff8582860161289b565b9250506020612d108582860161289b565b9150509250929050565b7f4e487b7100000000000000000000000000000000000000000000000000000000600052602260045260246000fd5b60006002820490506001821680612d6157607f821691505b60208210811415612d7557612d74612d1a565b5b50919050565b7f4552433732313a20617070726f76656420717565727920666f72206e6f6e657860008201527f697374656e7420746f6b656e0000000000000000000000000000000000000000602082015250565b6000612dd7602c83612715565b9150612de282612d7b565b604082019050919050565b60006020820190508181036000830152612e0681612dca565b9050919050565b7f4552433732313a20617070726f76616c20746f2063757272656e74206f776e6560008201527f7200000000000000000000000000000000000000000000000000000000000000602082015250565b6000612e69602183612715565b9150612e7482612e0d565b604082019050919050565b60006020820190508181036000830152612e9881612e5c565b9050919050565b7f4552433732313a20617070726f76652063616c6c6572206973206e6f74206f7760008201527f6e6572206e6f7220617070726f76656420666f7220616c6c0000000000000000602082015250565b6000612efb603883612715565b9150612f0682612e9f565b604082019050919050565b60006020820190508181036000830152612f2a81612eee565b9050919050565b7f46696e616c2077696e6e65722063616e206f6e6c792062652063616c63756c6160008201527f74656420616674657220706572696f6420656e64730000000000000000000000602082015250565b6000612f8d603583612715565b9150612f9882612f31565b604082019050919050565b60006020820190508181036000830152612fbc81612f80565b9050919050565b7f4e6f2066756e647320746f20626520776f6e0000000000000000000000000000600082015250565b6000612ff9601283612715565b915061300482612fc3565b602082019050919050565b6000602082019050818103600083015261302881612fec565b9050919050565b7f4552433732313a207472616e736665722063616c6c6572206973206e6f74206f60008201527f776e6572206e6f7220617070726f766564000000000000000000000000000000602082015250565b600061308b603183612715565b91506130968261302f565b604082019050919050565b600060208201905081810360008301526130ba8161307e565b9050919050565b7f5469636b6574206973206e6f742077696e6e696e67206f6e6500000000000000600082015250565b60006130f7601983612715565b9150613102826130c1565b602082019050919050565b60006020820190508181036000830152613126816130ea565b9050919050565b7f596f752073686f756c64206265206f776e6572206f7220617070726f7665642060008201527f746f207370656e6420746865207469636b657400000000000000000000000000602082015250565b6000613189603383612715565b91506131948261312d565b604082019050919050565b600060208201905081810360008301526131b88161317c565b9050919050565b600081905092915050565b50565b60006131da6000836131bf565b91506131e5826131ca565b600082019050919050565b60006131fb826131cd565b9150819050919050565b7f5472616e73666572206661696c65642e00000000000000000000000000000000600082015250565b600061323b601083612715565b915061324682613205565b602082019050919050565b6000602082019050818103600083015261326a8161322e565b9050919050565b7f4552433732313a206f776e657220717565727920666f72206e6f6e657869737460008201527f656e7420746f6b656e0000000000000000000000000000000000000000000000602082015250565b60006132cd602983612715565b91506132d882613271565b604082019050919050565b600060208201905081810360008301526132fc816132c0565b9050919050565b7f4552433732313a2062616c616e636520717565727920666f7220746865207a6560008201527f726f206164647265737300000000000000000000000000000000000000000000602082015250565b600061335f602a83612715565b915061336a82613303565b604082019050919050565b6000602082019050818103600083015261338e81613352565b9050919050565b7f4f776e61626c653a2063616c6c6572206973206e6f7420746865206f776e6572600082015250565b60006133cb602083612715565b91506133d682613395565b602082019050919050565b600060208201905081810360008301526133fa816133be565b9050919050565b7f546865207374617274696e6720626c6f636b2073686f756c64206e6f7420626560008201527f20696e2074686520706173740000000000000000000000000000000000000000602082015250565b600061345d602c83612715565b915061346882613401565b604082019050919050565b6000602082019050818103600083015261348c81613450565b9050919050565b7f54686520656e6420626c6f636b2073686f756c64206265206c6174746572207460008201527f68616e20737461727420626c6f636b0000000000000000000000000000000000602082015250565b60006134ef602f83612715565b91506134fa82613493565b604082019050919050565b6000602082019050818103600083015261351e816134e2565b9050919050565b7f5469636b6574207072696365206d75737420626520626967676572207468616e60008201527f207a65726f000000000000000000000000000000000000000000000000000000602082015250565b6000613581602583612715565b915061358c82613525565b604082019050919050565b600060208201905081810360008301526135b081613574565b9050919050565b6000819050919050565b600060ff82169050919050565b6000819050919050565b60006135f36135ee6135e9846135b7565b6135ce565b6135c1565b9050919050565b613603816135d8565b82525050565b600060208201905061361e60008301846135fa565b92915050565b7f4e6f206f6e6520626f7567687420616e79207469636b65747320796574000000600082015250565b600061365a601d83612715565b915061366582613624565b602082019050919050565b600060208201905081810360008301526136898161364d565b9050919050565b7f4e487b7100000000000000000000000000000000000000000000000000000000600052601260045260246000fd5b7f4e487b7100000000000000000000000000000000000000000000000000000000600052601160045260246000fd5b60006136f9826127c5565b9150613704836127c5565b92508261371457613713613690565b5b828204905092915050565b600061372a826127c5565b9150613735836127c5565b925082821015613748576137476136bf565b5b828203905092915050565b7f4552433732314d657461646174613a2055524920717565727920666f72206e6f60008201527f6e6578697374656e7420746f6b656e0000000000000000000000000000000000602082015250565b60006137af602f83612715565b91506137ba82613753565b604082019050919050565b600060208201905081810360008301526137de816137a2565b9050919050565b600081905092915050565b60006137fb8261270a565b61380581856137e5565b9350613815818560208601612726565b80840191505092915050565b600061382d82856137f0565b915061383982846137f0565b91508190509392505050565b7f4c6f7474617279206861736e2774207374617274656400000000000000000000600082015250565b600061387b601683612715565b915061388682613845565b602082019050919050565b600060208201905081810360008301526138aa8161386e565b9050919050565b7f4c6f7474617279206861732066696e6973686564000000000000000000000000600082015250565b60006138e7601483612715565b91506138f2826138b1565b602082019050919050565b60006020820190508181036000830152613916816138da565b9050919050565b7f4e6f7420656e6f756768206d6f6e657920666f722061207469636b6574000000600082015250565b6000613953601d83612715565b915061395e8261391d565b602082019050919050565b6000602082019050818103600083015261398281613946565b9050919050565b6000613994826127c5565b91507fffffffffffffffffffffffffffffffffffffffffffffffffffffffffffffffff8214156139c7576139c66136bf565b5b600182019050919050565b60006139dd826127c5565b91506139e8836127c5565b9250827fffffffffffffffffffffffffffffffffffffffffffffffffffffffffffffffff03821115613a1d57613a1c6136bf565b5b828201905092915050565b7f5472616e73666572206661696c65640000000000000000000000000000000000600082015250565b6000613a5e600f83612715565b9150613a6982613a28565b602082019050919050565b60006020820190508181036000830152613a8d81613a51565b9050919050565b7f4f776e61626c653a206e6577206f776e657220697320746865207a65726f206160008201527f6464726573730000000000000000000000000000000000000000000000000000602082015250565b6000613af0602683612715565b9150613afb82613a94565b604082019050919050565b60006020820190508181036000830152613b1f81613ae3565b9050919050565b6000613b31826127c5565b9150613b3c836127c5565b925082613b4c57613b4b613690565b5b828206905092915050565b7f4552433732313a206f70657261746f7220717565727920666f72206e6f6e657860008201527f697374656e7420746f6b656e0000000000000000000000000000000000000000602082015250565b6000613bb3602c83612715565b9150613bbe82613b57565b604082019050919050565b60006020820190508181036000830152613be281613ba6565b9050919050565b7f4552433732313a207472616e736665722066726f6d20696e636f72726563742060008201527f6f776e6572000000000000000000000000000000000000000000000000000000602082015250565b6000613c45602583612715565b9150613c5082613be9565b604082019050919050565b60006020820190508181036000830152613c7481613c38565b9050919050565b7f4552433732313a207472616e7366657220746f20746865207a65726f2061646460008201527f7265737300000000000000000000000000000000000000000000000000000000602082015250565b6000613cd7602483612715565b9150613ce282613c7b565b604082019050919050565b60006020820190508181036000830152613d0681613cca565b9050919050565b7f496e697469616c697a61626c653a20636f6e747261637420697320616c72656160008201527f647920696e697469616c697a6564000000000000000000000000000000000000602082015250565b6000613d69602e83612715565b9150613d7482613d0d565b604082019050919050565b60006020820190508181036000830152613d9881613d5c565b9050919050565b7f496e697469616c697a61626c653a20636f6e7472616374206973206e6f74206960008201527f6e697469616c697a696e67000000000000000000000000000000000000000000602082015250565b6000613dfb602b83612715565b9150613e0682613d9f565b604082019050919050565b60006020820190508181036000830152613e2a81613dee565b9050919050565b7f4552433732313a20617070726f766520746f2063616c6c657200000000000000600082015250565b6000613e67601983612715565b9150613e7282613e31565b602082019050919050565b60006020820190508181036000830152613e9681613e5a565b9050919050565b7f4552433732313a207472616e7366657220746f206e6f6e20455243373231526560008201527f63656976657220696d706c656d656e7465720000000000000000000000000000602082015250565b6000613ef9603283612715565b9150613f0482613e9d565b604082019050919050565b60006020820190508181036000830152613f2881613eec565b9050919050565b7f4e487b7100000000000000000000000000000000000000000000000000000000600052603260045260246000fd5b7f4552433732313a206d696e7420746f20746865207a65726f2061646472657373600082015250565b6000613f94602083612715565b9150613f9f82613f5e565b602082019050919050565b60006020820190508181036000830152613fc381613f87565b9050919050565b7f4552433732313a20746f6b656e20616c7265616479206d696e74656400000000600082015250565b6000614000601c83612715565b915061400b82613fca565b602082019050919050565b6000602082019050818103600083015261402f81613ff3565b9050919050565b6000819050919050565b61405161404c826127c5565b614036565b82525050565b60006140638285614040565b6020820191506140738284614040565b6020820191508190509392505050565b600081519050919050565b600082825260208201905092915050565b60006140aa82614083565b6140b4818561408e565b93506140c4818560208601612726565b6140cd81612759565b840191505092915050565b60006080820190506140ed600083018761285a565b6140fa602083018661285a565b6141076040830185612943565b8181036060830152614119818461409f565b905095945050505050565b6000815190506141338161267b565b92915050565b60006020828403121561414f5761414e612645565b5b600061415d84828501614124565b9150509291505056fea2646970667358221220aae502e51e4d682f55a0a6d9267cf2ed15d5b1fa157545b012fc5319625ef2af64736f6c63430008090033",
  "linkReferences": {},
  "deployedLinkReferences": {}
}